:040000000BEF00F012
:100008002582FACF01F0FBCF02F071ED05F0B5EFD4
:0200180006F0F0
:10080000003F065B4F666D7C077F67001C5008E168
:100810000A0E1B5CD8B004D01B5084EC06F012000A
:100820001C5004E10A0E1B5CD8A028D01C5026E105
:10083000640E1B5CD8B022D01BC00FF01CC010F09F
:10084000000E126E0A0E116E21EC06F00F5084ECB1
:1008500006F00D0E1D6EFC0EE82EFED71D2EFCD7E9
:100860001BC014F01CC015F0000E176E0A0E166E99
:10087000F8EC05F014506EEC06F012001C5004E188
:10088000640E1B5CD8A054D0E80E1B5C030E1C58F1
:10089000D8B04ED0000E126E640E116E1BC00FF059
:1008A0001CC010F021EC06F00FC020F010C021F0A9
:1008B00020C00FF021C010F0000E126E0A0E116E53
:1008C00021EC06F00F5084EC06F00D0E1D6EFC0EB0
:1008D000E82EFED71D2EFCD7000E126E640E116E90
:1008E0001BC00FF01CC010F021EC06F00FC014F07C
:1008F00010C015F0000E176E0A0E166EF8EC05F01B
:1009000014506EEC06F00D0E1D6EFC0EE82EFED798
:100910001D2EFCD71BC014F01CC015F0000E176E66
:10092000640E166EF8EC05F0145058EC06F0120048
:10093000E80E1B5C030E1C58D8A01200030E126EAA
:10094000E80E116E1BC00FF01CC010F021EC06F079
:100950000FC020F010C021F0000E126E640E116E58
:1009600020C00FF021C010F021EC06F00FC01EF0E7
:1009700010C01FF01EC00FF01FC010F0000E126E4E
:100980000A0E116E21EC06F00F5084EC06F00D0EED
:100990001D6EFC0EE82EFED71D2EFCD7030E126E28
:1009A000E80E116E1BC00FF01CC010F021EC06F019
:1009B0000FC020F010C021F0000E126E640E116EF8
:1009C00020C00FF021C010F021EC06F00FC014F091
:1009D00010C015F0000E176E0A0E166EF8EC05F03A
:1009E00014506EEC06F00D0E1D6EFC0EE82EFED7B8
:1009F0001D2EFCD7030E126EE80E116E1BC00FF0F9
:100A00001CC010F021EC06F00FC014F010C015F05F
:100A1000000E176E640E166EF8EC05F0145058ECCC
:100A200006F00D0E1D6EFC0EE82EFED71D2EFCD717
:100A30001BC014F01CC015F0030E176EE80E166EE6
:100A4000F8EC05F0145042EC06F01200176E000EA0
:100A5000166E000E156E070E176405D0000E106E90
:100A6000000E0F6E1200C30EC2161744E846FC0BB0
:100A7000C212C09E0F50C012C2801A0EE82EFED7BE
:100A800000D0C282C2B2FED7800E0F18D8A40BD0FD
:100A9000C350C4CF11F0126A11C012F0116A1110C4
:100AA000156E125018D00F50D8A416D0C3CF11F025
:100AB000060E126ED8901132122EFCD71150C4CFF0
:100AC00013F0146AD89013361436D89013361436AF
:100AD0001310156E1450166E15C00FF016C010F0DE
:100AE00012000600E9CF03F0EACF04F0E1CF05F0F1
:100AF000E2CF06F0D9CF07F0DACF08F0F3CF09F054
:100B0000F4CF0AF0F6CF0BF0F7CF0CF0F8CF0DF0E2
:100B1000F5CF0EF0F2A40DD0F294242A3D0E241845
:100B2000D8A407D08BBE02D08B8E01D08B9E000E36
:100B3000246E0EC0F5FF0DC0F8FF0CC0F7FF0BC010
:100B4000F6FF0AC0F4FF09C0F3FF08C0DAFF07C0D0
:100B5000D9FF06C0E2FF05C0E1FF04C0EAFF03C001
:100B6000E9FF02C0FBFF01C0FAFF25921100800ED1
:100B7000CBEC06F0800EF9EC06F0010EE9EC06F085
:100B8000FF0EC6EC06F0FF0EF5EC06F0060EAAEC22
:100B900006F0FDEC06F0D0EC06F0F28E180E0F6EAB
:100BA000000E106E010E9AEC06F0BFEC06F0000E7F
:100BB000236E000E226E800E0F6E000E26EC05F0E6
:100BC0000FC022F010C023F022C01BF023C01CF085
:100BD00006EC04F02204020E2358D8A003D0FDEC4A
:100BE00006F0E9D700EC07F0800EF9EC06F0E3D749
:100BF000000E196E000E186E16501710D8B41CD0C7
:100C0000010E1A6E04D0D890163617361A2A17AE6F
:100C1000FAD7D890183619361650145C1750155854
:100C2000D8A005D01650145E1750155A1880D890C9
:100C3000173216321A2EEDD718C014F019C015F05D
:100C4000120011501210D8B418D0010E136E04D037
:100C5000D89011361236132A12AEFAD711500F5C03
:100C600012501058D8A004D011500F5E1250105AD4
:100C7000D89012321132132EF1D70FC00FF010C0DE
:100C800010F01200106E240EDAEC06F0010ED5EC16
:100C900006F0040EEDEC06F01050010D010EF324E9
:100CA000F66E080EF420F76E0800F5CF8CFF1200E8
:100CB000106E240EDAEC06F0010EEDEC06F0040ED8
:100CC000D5EC06F01050010D010EF324F66E080E5F
:100CD000F420F76E0800F5CF8CFF1200106E200E86
:100CE000DAEC06F0040EF1EC06F0050ED5EC06F099
:100CF0001050010D010EF324F66E080EF420F76E6D
:100D00000800F5CF8CFF1200106E200EF1EC06F0FB
:100D1000040EDAEC06F0050ED5EC06F01050010DCD
:100D2000010EF324F66E080EF420F76E0800F5CFDE
:100D30008CFF1200116EF80EC0161150C012C70EB3
:100D4000C0160F50C012F00EC1161050C112C19A39
:100D5000C19812000F6ED59AD596D550F80BD56E66
:100D6000D5500F10D56ED58E1200246A259025928D
:100D7000000EF86E080EF76E0001B7EF05F0240EB6
:100D8000E4EC06F0050EDFEC06F012000F6E0F50DB
:100D9000FF0A951612000F6E0F50FF0A94161200EC
:100DA000000ED76E000ED66E12000F6E0F50FF0AA7
:100DB0008D1612000F6E0F50FF0A891612000F6E6B
:100DC0000F50FF0A961612000F6E0F50FF0A921670
:100DD00012000F6E0F50921212000F6E0F508D12F4
:100DE00012000F6E0F50891212000F6E0F508C12EE
:100DF00012000F6E0F508B121200F28AF294120042
:040E0000F29A120050
:020000040020DA
:08000000FFFFFFFFFFFFFFFF00
:020000040030CA
:0E000000000C1F1EFF0385FF0FC00FE00F4016
:00000001FF
